{
  "_format": "hh-sol-artifact-1",
  "contractName": "Certify",
  "sourceName": "contracts/Certify.sol",
  "abi": [
    {
      "inputs": [
        {
          "internalType": "string",
          "name": "_greeting",
          "type": "string"
        }
      ],
      "stateMutability": "nonpayable",
      "type": "constructor"
    },
    {
      "inputs": [
        {
          "internalType": "string",
          "name": "_u",
          "type": "string"
        }
      ],
      "name": "get",
      "outputs": [
        {
          "internalType": "bool",
          "name": "",
          "type": "bool"
        },
        {
          "internalType": "string",
          "name": "_studentName",
          "type": "string"
        },
        {
          "internalType": "string",
          "name": "_verifierName",
          "type": "string"
        },
        {
          "internalType": "string",
          "name": "_documentType",
          "type": "string"
        },
        {
          "internalType": "string",
          "name": "_documentKey",
          "type": "string"
        },
        {
          "internalType": "string",
          "name": "_studentReference",
          "type": "string"
        }
      ],
      "stateMutability": "view",
      "type": "function"
    },
    {
      "inputs": [],
      "name": "getCertificationDetails",
      "outputs": [
        {
          "components": [
            {
              "internalType": "string",
              "name": "studentName",
              "type": "string"
            },
            {
              "internalType": "string",
              "name": "verifierName",
              "type": "string"
            },
            {
              "internalType": "string",
              "name": "documentType",
              "type": "string"
            },
            {
              "internalType": "string",
              "name": "documentKey",
              "type": "string"
            },
            {
              "internalType": "string",
              "name": "studentReference",
              "type": "string"
            }
          ],
          "internalType": "struct Certify.CertificationData[]",
          "name": "",
          "type": "tuple[]"
        }
      ],
      "stateMutability": "view",
      "type": "function"
    },
    {
      "inputs": [
        {
          "internalType": "string",
          "name": "_studentName",
          "type": "string"
        },
        {
          "internalType": "string",
          "name": "_verifierName",
          "type": "string"
        },
        {
          "internalType": "string",
          "name": "_documentType",
          "type": "string"
        },
        {
          "internalType": "string",
          "name": "_documentKey",
          "type": "string"
        },
        {
          "internalType": "string",
          "name": "_studentReference",
          "type": "string"
        }
      ],
      "name": "setCertificationDetails",
      "outputs": [],
      "stateMutability": "nonpayable",
      "type": "function"
    }
  ],
  "bytecode": "0x60806040523480156200001157600080fd5b5060405162001797380380620017978339818101604052810190620000379190620003a3565b620000676040518060600160405280602281526020016200177560229139826200008760201b620009461760201c565b80600090805190602001906200007f92919062000156565b5050620004f1565b620001298282604051602401620000a092919062000451565b6040516020818303038152906040527f4b5c4277000000000000000000000000000000000000000000000000000000007bffffffffffffffffffffffffffffffffffffffffffffffffffffffff19166020820180517bffffffffffffffffffffffffffffffffffffffffffffffffffffffff83818316178352505050506200012d60201b60201c565b5050565b60008151905060006a636f6e736f6c652e6c6f679050602083016000808483855afa5050505050565b8280546200016490620004bb565b90600052602060002090601f016020900481019282620001885760008555620001d4565b82601f10620001a357805160ff1916838001178555620001d4565b82800160010185558215620001d4579182015b82811115620001d3578251825591602001919060010190620001b6565b5b509050620001e39190620001e7565b5090565b5b8082111562000202576000816000905550600101620001e8565b5090565b6000604051905090565b600080fd5b600080fd5b600080fd5b600080fd5b6000601f19601f8301169050919050565b7f4e487b7100000000000000000000000000000000000000000000000000000000600052604160045260246000fd5b6200026f8262000224565b810181811067ffffffffffffffff8211171562000291576200029062000235565b5b80604052505050565b6000620002a662000206565b9050620002b4828262000264565b919050565b600067ffffffffffffffff821115620002d757620002d662000235565b5b620002e28262000224565b9050602081019050919050565b60005b838110156200030f578082015181840152602081019050620002f2565b838111156200031f576000848401525b50505050565b60006200033c6200033684620002b9565b6200029a565b9050828152602081018484840111156200035b576200035a6200021f565b5b62000368848285620002ef565b509392505050565b600082601f8301126200038857620003876200021a565b5b81516200039a84826020860162000325565b91505092915050565b600060208284031215620003bc57620003bb62000210565b5b600082015167ffffffffffffffff811115620003dd57620003dc62000215565b5b620003eb8482850162000370565b91505092915050565b600081519050919050565b600082825260208201905092915050565b60006200041d82620003f4565b620004298185620003ff565b93506200043b818560208601620002ef565b620004468162000224565b840191505092915050565b600060408201905081810360008301526200046d818562000410565b9050818103602083015262000483818462000410565b90509392505050565b7f4e487b7100000000000000000000000000000000000000000000000000000000600052602260045260246000fd5b60006002820490506001821680620004d457607f821691505b60208210811415620004eb57620004ea6200048c565b5b50919050565b61127480620005016000396000f3fe608060405234801561001057600080fd5b50600436106100415760003560e01c80633e14baab14610046578063693ec85e14610062578063afe651b714610097575b600080fd5b610060600480360381019061005b9190610c08565b6100b5565b005b61007c60048036038101906100779190610d0f565b6101a7565b60405161008e96959493929190610dfb565b60405180910390f35b61009f61060d565b6040516100ac919061101d565b60405180910390f35b60006040518060a0016040528087815260200186815260200185815260200184815260200183815250905060018190806001815401808255809150506001900390600052602060002090600502016000909190919091506000820151816000019080519060200190610128929190610a0b565b506020820151816001019080519060200190610145929190610a0b565b506040820151816002019080519060200190610162929190610a0b565b50606082015181600301908051906020019061017f929190610a0b565b50608082015181600401908051906020019061019c929190610a0b565b505050505050505050565b6000606080606080606060005b6001805490508110156105a457600181815481106101d5576101d461103f565b5b90600052602060002090600502016003016040516101f3919061116e565b60405180910390208880519060200120141561059157600180828154811061021e5761021d61103f565b5b9060005260206000209060050201600001600183815481106102435761024261103f565b5b9060005260206000209060050201600101600184815481106102685761026761103f565b5b90600052602060002090600502016002016001858154811061028d5761028c61103f565b5b9060005260206000209060050201600301600186815481106102b2576102b161103f565b5b90600052602060002090600502016004018480546102cf9061109d565b80601f01602080910402602001604051908101604052809291908181526020018280546102fb9061109d565b80156103485780601f1061031d57610100808354040283529160200191610348565b820191906000526020600020905b81548152906001019060200180831161032b57829003601f168201915b5050505050945083805461035b9061109d565b80601f01602080910402602001604051908101604052809291908181526020018280546103879061109d565b80156103d45780601f106103a9576101008083540402835291602001916103d4565b820191906000526020600020905b8154815290600101906020018083116103b757829003601f168201915b505050505093508280546103e79061109d565b80601f01602080910402602001604051908101604052809291908181526020018280546104139061109d565b80156104605780601f1061043557610100808354040283529160200191610460565b820191906000526020600020905b81548152906001019060200180831161044357829003601f168201915b505050505092508180546104739061109d565b80601f016020809104026020016040519081016040528092919081815260200182805461049f9061109d565b80156104ec5780601f106104c1576101008083540402835291602001916104ec565b820191906000526020600020905b8154815290600101906020018083116104cf57829003601f168201915b505050505091508080546104ff9061109d565b80601f016020809104026020016040519081016040528092919081815260200182805461052b9061109d565b80156105785780601f1061054d57610100808354040283529160200191610578565b820191906000526020600020905b81548152906001019060200180831161055b57829003601f168201915b5050505050905096509650965096509650965050610604565b808061059c906111be565b9150506101b4565b50600060405180602001604052806000815250604051806020016040528060008152506040518060200160405280600081525060405180602001604052806000815250604051806020016040528060008152509550955095509550955095505b91939550919395565b60606001805480602002602001604051908101604052809291908181526020016000905b8282101561093d57838290600052602060002090600502016040518060a00160405290816000820180546106649061109d565b80601f01602080910402602001604051908101604052809291908181526020018280546106909061109d565b80156106dd5780601f106106b2576101008083540402835291602001916106dd565b820191906000526020600020905b8154815290600101906020018083116106c057829003601f168201915b505050505081526020016001820180546106f69061109d565b80601f01602080910402602001604051908101604052809291908181526020018280546107229061109d565b801561076f5780601f106107445761010080835404028352916020019161076f565b820191906000526020600020905b81548152906001019060200180831161075257829003601f168201915b505050505081526020016002820180546107889061109d565b80601f01602080910402602001604051908101604052809291908181526020018280546107b49061109d565b80156108015780601f106107d657610100808354040283529160200191610801565b820191906000526020600020905b8154815290600101906020018083116107e457829003601f168201915b5050505050815260200160038201805461081a9061109d565b80601f01602080910402602001604051908101604052809291908181526020018280546108469061109d565b80156108935780601f1061086857610100808354040283529160200191610893565b820191906000526020600020905b81548152906001019060200180831161087657829003601f168201915b505050505081526020016004820180546108ac9061109d565b80601f01602080910402602001604051908101604052809291908181526020018280546108d89061109d565b80156109255780601f106108fa57610100808354040283529160200191610925565b820191906000526020600020905b81548152906001019060200180831161090857829003601f168201915b50505050508152505081526020019060010190610631565b50505050905090565b6109de828260405160240161095c929190611207565b6040516020818303038152906040527f4b5c4277000000000000000000000000000000000000000000000000000000007bffffffffffffffffffffffffffffffffffffffffffffffffffffffff19166020820180517bffffffffffffffffffffffffffffffffffffffffffffffffffffffff83818316178352505050506109e2565b5050565b60008151905060006a636f6e736f6c652e6c6f679050602083016000808483855afa5050505050565b828054610a179061109d565b90600052602060002090601f016020900481019282610a395760008555610a80565b82601f10610a5257805160ff1916838001178555610a80565b82800160010185558215610a80579182015b82811115610a7f578251825591602001919060010190610a64565b5b509050610a8d9190610a91565b5090565b5b80821115610aaa576000816000905550600101610a92565b5090565b6000604051905090565b600080fd5b600080fd5b600080fd5b600080fd5b6000601f19601f8301169050919050565b7f4e487b7100000000000000000000000000000000000000000000000000000000600052604160045260246000fd5b610b1582610acc565b810181811067ffffffffffffffff82111715610b3457610b33610add565b5b80604052505050565b6000610b47610aae565b9050610b538282610b0c565b919050565b600067ffffffffffffffff821115610b7357610b72610add565b5b610b7c82610acc565b9050602081019050919050565b82818337600083830152505050565b6000610bab610ba684610b58565b610b3d565b905082815260208101848484011115610bc757610bc6610ac7565b5b610bd2848285610b89565b509392505050565b600082601f830112610bef57610bee610ac2565b5b8135610bff848260208601610b98565b91505092915050565b600080600080600060a08688031215610c2457610c23610ab8565b5b600086013567ffffffffffffffff811115610c4257610c41610abd565b5b610c4e88828901610bda565b955050602086013567ffffffffffffffff811115610c6f57610c6e610abd565b5b610c7b88828901610bda565b945050604086013567ffffffffffffffff811115610c9c57610c9b610abd565b5b610ca888828901610bda565b935050606086013567ffffffffffffffff811115610cc957610cc8610abd565b5b610cd588828901610bda565b925050608086013567ffffffffffffffff811115610cf657610cf5610abd565b5b610d0288828901610bda565b9150509295509295909350565b600060208284031215610d2557610d24610ab8565b5b600082013567ffffffffffffffff811115610d4357610d42610abd565b5b610d4f84828501610bda565b91505092915050565b60008115159050919050565b610d6d81610d58565b82525050565b600081519050919050565b600082825260208201905092915050565b60005b83811015610dad578082015181840152602081019050610d92565b83811115610dbc576000848401525b50505050565b6000610dcd82610d73565b610dd78185610d7e565b9350610de7818560208601610d8f565b610df081610acc565b840191505092915050565b600060c082019050610e106000830189610d64565b8181036020830152610e228188610dc2565b90508181036040830152610e368187610dc2565b90508181036060830152610e4a8186610dc2565b90508181036080830152610e5e8185610dc2565b905081810360a0830152610e728184610dc2565b9050979650505050505050565b600081519050919050565b600082825260208201905092915050565b6000819050602082019050919050565b600082825260208201905092915050565b6000610ec782610d73565b610ed18185610eab565b9350610ee1818560208601610d8f565b610eea81610acc565b840191505092915050565b600060a0830160008301518482036000860152610f128282610ebc565b91505060208301518482036020860152610f2c8282610ebc565b91505060408301518482036040860152610f468282610ebc565b91505060608301518482036060860152610f608282610ebc565b91505060808301518482036080860152610f7a8282610ebc565b9150508091505092915050565b6000610f938383610ef5565b905092915050565b6000602082019050919050565b6000610fb382610e7f565b610fbd8185610e8a565b935083602082028501610fcf85610e9b565b8060005b8581101561100b5784840389528151610fec8582610f87565b9450610ff783610f9b565b925060208a01995050600181019050610fd3565b50829750879550505050505092915050565b600060208201905081810360008301526110378184610fa8565b905092915050565b7f4e487b7100000000000000000000000000000000000000000000000000000000600052603260045260246000fd5b7f4e487b7100000000000000000000000000000000000000000000000000000000600052602260045260246000fd5b600060028204905060018216806110b557607f821691505b602082108114156110c9576110c861106e565b5b50919050565b600081905092915050565b60008190508160005260206000209050919050565b600081546110fc8161109d565b61110681866110cf565b94506001821660008114611121576001811461113257611165565b60ff19831686528186019350611165565b61113b856110da565b60005b8381101561115d5781548189015260018201915060208101905061113e565b838801955050505b50505092915050565b600061117a82846110ef565b915081905092915050565b7f4e487b7100000000000000000000000000000000000000000000000000000000600052601160045260246000fd5b6000819050919050565b60006111c9826111b4565b91507fffffffffffffffffffffffffffffffffffffffffffffffffffffffffffffffff8214156111fc576111fb611185565b5b600182019050919050565b600060408201905081810360008301526112218185610dc2565b905081810360208301526112358184610dc2565b9050939250505056fea2646970667358221220584e894c407d5edf6d8b817618a11f65c4f1e30a9d57357cbf45d858f39ff11d64736f6c634300080900334465706c6f79696e6720436572746966696572207769746820636572742027257327",
  "linkReferences": {},
  "deployedLinkReferences": {}
}