{
  "_format": "hh-sol-artifact-1",
  "contractName": "Certify",
  "sourceName": "contracts/Certify.sol",
  "abi": [
    {
      "inputs": [
        {
          "internalType": "string",
          "name": "_greeting",
          "type": "string"
        }
      ],
      "stateMutability": "nonpayable",
      "type": "constructor"
    },
    {
      "inputs": [
        {
          "internalType": "string",
          "name": "_u",
          "type": "string"
        }
      ],
      "name": "get",
      "outputs": [
        {
          "internalType": "bool",
          "name": "",
          "type": "bool"
        }
      ],
      "stateMutability": "view",
      "type": "function"
    },
    {
      "inputs": [],
      "name": "getCertificationDetails",
      "outputs": [
        {
          "internalType": "string[]",
          "name": "_documentKey",
          "type": "string[]"
        }
      ],
      "stateMutability": "view",
      "type": "function"
    },
    {
      "inputs": [
        {
          "internalType": "string",
          "name": "_studentName",
          "type": "string"
        },
        {
          "internalType": "string",
          "name": "_verifierName",
          "type": "string"
        },
        {
          "internalType": "string",
          "name": "_documentType",
          "type": "string"
        },
        {
          "internalType": "string",
          "name": "_documentKey",
          "type": "string"
        },
        {
          "internalType": "string",
          "name": "_studentReference",
          "type": "string"
        }
      ],
      "name": "setCertificationDetails",
      "outputs": [],
      "stateMutability": "nonpayable",
      "type": "function"
    }
  ],
  "bytecode": "0x60806040523480156200001157600080fd5b5060405162001090380380620010908339818101604052810190620000379190620003a3565b620000676040518060600160405280602281526020016200106e60229139826200008760201b6200033a1760201c565b80600090805190602001906200007f92919062000156565b5050620004f1565b620001298282604051602401620000a092919062000451565b6040516020818303038152906040527f4b5c4277000000000000000000000000000000000000000000000000000000007bffffffffffffffffffffffffffffffffffffffffffffffffffffffff19166020820180517bffffffffffffffffffffffffffffffffffffffffffffffffffffffff83818316178352505050506200012d60201b60201c565b5050565b60008151905060006a636f6e736f6c652e6c6f679050602083016000808483855afa5050505050565b8280546200016490620004bb565b90600052602060002090601f016020900481019282620001885760008555620001d4565b82601f10620001a357805160ff1916838001178555620001d4565b82800160010185558215620001d4579182015b82811115620001d3578251825591602001919060010190620001b6565b5b509050620001e39190620001e7565b5090565b5b8082111562000202576000816000905550600101620001e8565b5090565b6000604051905090565b600080fd5b600080fd5b600080fd5b600080fd5b6000601f19601f8301169050919050565b7f4e487b7100000000000000000000000000000000000000000000000000000000600052604160045260246000fd5b6200026f8262000224565b810181811067ffffffffffffffff8211171562000291576200029062000235565b5b80604052505050565b6000620002a662000206565b9050620002b4828262000264565b919050565b600067ffffffffffffffff821115620002d757620002d662000235565b5b620002e28262000224565b9050602081019050919050565b60005b838110156200030f578082015181840152602081019050620002f2565b838111156200031f576000848401525b50505050565b60006200033c6200033684620002b9565b6200029a565b9050828152602081018484840111156200035b576200035a6200021f565b5b62000368848285620002ef565b509392505050565b600082601f8301126200038857620003876200021a565b5b81516200039a84826020860162000325565b91505092915050565b600060208284031215620003bc57620003bb62000210565b5b600082015167ffffffffffffffff811115620003dd57620003dc62000215565b5b620003eb8482850162000370565b91505092915050565b600081519050919050565b600082825260208201905092915050565b60006200041d82620003f4565b620004298185620003ff565b93506200043b818560208601620002ef565b620004468162000224565b840191505092915050565b600060408201905081810360008301526200046d818562000410565b9050818103602083015262000483818462000410565b90509392505050565b7f4e487b7100000000000000000000000000000000000000000000000000000000600052602260045260246000fd5b60006002820490506001821680620004d457607f821691505b60208210811415620004eb57620004ea6200048c565b5b50919050565b610b6d80620005016000396000f3fe608060405234801561001057600080fd5b50600436106100415760003560e01c80633e14baab14610046578063693ec85e14610062578063afe651b714610092575b600080fd5b610060600480360381019061005b91906105fc565b6100b0565b005b61007c60048036038101906100779190610703565b6101e3565b6040516100899190610767565b60405180910390f35b61009a610261565b6040516100a791906108cc565b60405180910390f35b6001859080600181540180825580915050600190039060005260206000200160009091909190915090805190602001906100eb9291906103ff565b506002849080600181540180825580915050600190039060005260206000200160009091909190915090805190602001906101279291906103ff565b506003839080600181540180825580915050600190039060005260206000200160009091909190915090805190602001906101639291906103ff565b5060048290806001815401808255809150506001900390600052602060002001600090919091909150908051906020019061019f9291906103ff565b506005819080600181540180825580915050600190039060005260206000200160009091909190915090805190602001906101db9291906103ff565b505050505050565b600080600090505b600480549050811015610256576004818154811061020c5761020b6108ee565b5b906000526020600020016040516102239190610a1d565b60405180910390208380519060200120141561024357600191505061025c565b808061024e90610a6d565b9150506101eb565b50600090505b919050565b60606004805480602002602001604051908101604052809291908181526020016000905b828210156103315783829060005260206000200180546102a49061094c565b80601f01602080910402602001604051908101604052809291908181526020018280546102d09061094c565b801561031d5780601f106102f25761010080835404028352916020019161031d565b820191906000526020600020905b81548152906001019060200180831161030057829003601f168201915b505050505081526020019060010190610285565b50505050905090565b6103d28282604051602401610350929190610b00565b6040516020818303038152906040527f4b5c4277000000000000000000000000000000000000000000000000000000007bffffffffffffffffffffffffffffffffffffffffffffffffffffffff19166020820180517bffffffffffffffffffffffffffffffffffffffffffffffffffffffff83818316178352505050506103d6565b5050565b60008151905060006a636f6e736f6c652e6c6f679050602083016000808483855afa5050505050565b82805461040b9061094c565b90600052602060002090601f01602090048101928261042d5760008555610474565b82601f1061044657805160ff1916838001178555610474565b82800160010185558215610474579182015b82811115610473578251825591602001919060010190610458565b5b5090506104819190610485565b5090565b5b8082111561049e576000816000905550600101610486565b5090565b6000604051905090565b600080fd5b600080fd5b600080fd5b600080fd5b6000601f19601f8301169050919050565b7f4e487b7100000000000000000000000000000000000000000000000000000000600052604160045260246000fd5b610509826104c0565b810181811067ffffffffffffffff82111715610528576105276104d1565b5b80604052505050565b600061053b6104a2565b90506105478282610500565b919050565b600067ffffffffffffffff821115610567576105666104d1565b5b610570826104c0565b9050602081019050919050565b82818337600083830152505050565b600061059f61059a8461054c565b610531565b9050828152602081018484840111156105bb576105ba6104bb565b5b6105c684828561057d565b509392505050565b600082601f8301126105e3576105e26104b6565b5b81356105f384826020860161058c565b91505092915050565b600080600080600060a08688031215610618576106176104ac565b5b600086013567ffffffffffffffff811115610636576106356104b1565b5b610642888289016105ce565b955050602086013567ffffffffffffffff811115610663576106626104b1565b5b61066f888289016105ce565b945050604086013567ffffffffffffffff8111156106905761068f6104b1565b5b61069c888289016105ce565b935050606086013567ffffffffffffffff8111156106bd576106bc6104b1565b5b6106c9888289016105ce565b925050608086013567ffffffffffffffff8111156106ea576106e96104b1565b5b6106f6888289016105ce565b9150509295509295909350565b600060208284031215610719576107186104ac565b5b600082013567ffffffffffffffff811115610737576107366104b1565b5b610743848285016105ce565b91505092915050565b60008115159050919050565b6107618161074c565b82525050565b600060208201905061077c6000830184610758565b92915050565b600081519050919050565b600082825260208201905092915050565b6000819050602082019050919050565b600081519050919050565b600082825260208201905092915050565b60005b838110156107e85780820151818401526020810190506107cd565b838111156107f7576000848401525b50505050565b6000610808826107ae565b61081281856107b9565b93506108228185602086016107ca565b61082b816104c0565b840191505092915050565b600061084283836107fd565b905092915050565b6000602082019050919050565b600061086282610782565b61086c818561078d565b93508360208202850161087e8561079e565b8060005b858110156108ba578484038952815161089b8582610836565b94506108a68361084a565b925060208a01995050600181019050610882565b50829750879550505050505092915050565b600060208201905081810360008301526108e68184610857565b905092915050565b7f4e487b7100000000000000000000000000000000000000000000000000000000600052603260045260246000fd5b7f4e487b7100000000000000000000000000000000000000000000000000000000600052602260045260246000fd5b6000600282049050600182168061096457607f821691505b602082108114156109785761097761091d565b5b50919050565b600081905092915050565b60008190508160005260206000209050919050565b600081546109ab8161094c565b6109b5818661097e565b945060018216600081146109d057600181146109e157610a14565b60ff19831686528186019350610a14565b6109ea85610989565b60005b83811015610a0c578154818901526001820191506020810190506109ed565b838801955050505b50505092915050565b6000610a29828461099e565b915081905092915050565b7f4e487b7100000000000000000000000000000000000000000000000000000000600052601160045260246000fd5b6000819050919050565b6000610a7882610a63565b91507fffffffffffffffffffffffffffffffffffffffffffffffffffffffffffffffff821415610aab57610aaa610a34565b5b600182019050919050565b600082825260208201905092915050565b6000610ad2826107ae565b610adc8185610ab6565b9350610aec8185602086016107ca565b610af5816104c0565b840191505092915050565b60006040820190508181036000830152610b1a8185610ac7565b90508181036020830152610b2e8184610ac7565b9050939250505056fea2646970667358221220c9523134ae7162f117c6150dc7d3e64ea03b89c251644988c5935b81b39e166564736f6c634300080900334465706c6f79696e6720436572746966696572207769746820636572742027257327",
  "linkReferences": {},
  "deployedLinkReferences": {}
}